:100000000C9446000C9463000C9463000C94630001
:100010000C9463000C9463000C9463000C946300D4
:100020000C9463000C9463000C9463000C946300C4
:100030000C9463000C9463000C9463000C946300B4
:100040000C9463000C9463000C9463000C946300A4
:100050000C94630066037B039003A503BA03BF03FC
:10006000C403C903CE03D3032504250425042504B2
:10007000250425042504D803DD03E203F603FB036E
:10008000000414041A0425041704200411241FBEBC
:10009000CFE5D8E0DEBFCDBF10E0A0E6B0E0E2EBF8
:1000A000FBE002C005900D92A436B107D9F710E02D
:1000B000A4E6B0E001C01D92A636B107E1F70E94A8
:1000C00035030C94D7050C9400003E9A3F9A379A5A
:1000D000329A319A0895369A349BFECF349A84B17D
:1000E00090E045B1342F20E0822B932B0895823489
:1000F00051F1833420F4813409F07BC007C083348C
:1001000009F43EC0843409F074C057C0413069F42A
:100110002AB381E090E0AC0102C0440F551F6A95FC
:10012000E2F7BA01622B6ABB08952AB381E090E03E
:10013000AC0102C0440F551F6A95E2F7BA01609501
:1001400062236ABB0895413069F427B381E090E0EF
:10015000AC0102C0440F551F6A95E2F7BA01622B49
:1001600067BB089527B381E090E0AC0102C0440F63
:10017000551F6A95E2F7BA016095622367BB08953F
:10018000413069F424B381E090E0AC0102C0440F37
:10019000551F6A95E2F7BA01622B64BB089524B338
:1001A00081E090E0AC0102C0440F551F6A95E2F770
:1001B000BA016095622364BB0895413069F421B3AC
:1001C00081E090E0AC0102C0440F551F6A95E2F750
:1001D000BA01622B61BB089521B381E090E0AC01CC
:1001E00002C0440F551F6A95E2F7BA016095622379
:1001F00061BB0895823451F1833420F4813409F0D5
:100200007BC007C0833409F43EC0843409F074C055
:1002100057C0413069F42BB381E090E0AC0102C0DB
:10022000440F551F6A95E2F7BA01622B6BBB089524
:100230002BB381E090E0AC0102C0440F551F6A95DA
:10024000E2F7BA01609562236BBB0895413069F40F
:1002500028B381E090E0AC0102C0440F551F6A95BD
:10026000E2F7BA01622B68BB089528B381E090E001
:10027000AC0102C0440F551F6A95E2F7BA016095C0
:10028000622368BB0895413069F425B381E090E0B2
:10029000AC0102C0440F551F6A95E2F7BA01622B08
:1002A00065BB089525B381E090E0AC0102C0440F26
:1002B000551F6A95E2F7BA016095622365BB089500
:1002C000413069F422B381E090E0AC0102C0440FF8
:1002D000551F6A95E2F7BA01622B62BB089522B3FB
:1002E00081E090E0AC0102C0440F551F6A95E2F72F
:1002F000BA016095622362BB08958234F1F08334C1
:1003000020F4813409F04FC006C0833441F18434B5
:1003100009F049C036C029B381E090E0062E02C042
:10032000880F991F0A94E2F730E08223932302C0DA
:10033000959587956A95E2F7089526B381E090E058
:10034000062E02C0880F991F0A94E2F730E082233C
:10035000932302C0959587956A95E2F7089523B394
:1003600081E090E0062E02C0880F991F0A94E2F700
:1003700030E08223932302C0959587956A95E2F732
:10038000089520B381E090E0062E02C0880F991FE7
:100390000A94E2F730E08223932302C09595879573
:1003A0006A95E2F7089580E008958234B9F08334C5
:1003B00018F48134C9F505C08334E9F08434A1F51B
:1003C00027C02BB381E090E0AC0102C0440F551F61
:1003D0006A95E2F7BA0162276BBB089528B381E002
:1003E00090E0AC0102C0440F551F6A95E2F7BA01D4
:1003F000622768BB089525B381E090E0AC0102C09C
:10040000440F551F6A95E2F7BA01622765BB08954C
:1004100022B381E090E0AC0102C0440F551F6A9501
:10042000E2F7BA01622762BB0895823461F0833437
:1004300018F4813469F405C0833439F0843441F40C
:1004400006C06ABB089567BB089564BB089561BB8D
:100450000895823461F0833418F4813469F405C05E
:10046000833439F0843441F406C06BBB089568BB13
:10047000089565BB089562BB0895823461F08334AA
:1004800018F4813471F405C0833439F0843449F4AC
:1004900006C089B3089586B3089583B3089580B3E1
:1004A000089580E00895823451F1833420F481343A
:1004B00009F07BC007C0833409F43EC0843409F0DE
:1004C00074C057C0413069F42BB381E090E0AC01B7
:1004D00002C0440F551F6A95E2F7BA01622B6BBB4D
:1004E00008952BB381E090E0AC0102C0440F551F8A
:1004F0006A95E2F7BA01609562236BBB08954130BB
:1005000069F428B381E090E0AC0102C0440F551FAC
:100510006A95E2F7BA01622B68BB089528B381E0BF
:1005200090E0AC0102C0440F551F6A95E2F7BA0192
:100530006095622368BB0895413069F425B381E07A
:1005400090E0AC0102C0440F551F6A95E2F7BA0172
:10055000622B65BB089525B381E090E0AC0102C039
:10056000440F551F6A95E2F7BA016095622365BB97
:100570000895413069F422B381E090E0AC0102C0FB
:10058000440F551F6A95E2F7BA01622B62BB0895CA
:1005900022B381E090E0AC0102C0440F551F6A9580
:1005A000E2F7BA016095622362BB08956F708234EE
:1005B00081F0833418F48134F1F405C0833479F088
:1005C0008434C9F412C08BB3807F8BBB8BB3862B72
:1005D0008BBB88B3807F88BB88B3862B88BB85B3F1
:1005E000807F85BB85B3862B85BB82B3807F82BB32
:1005F00082B3682B62BB08956295607F823481F07C
:10060000833418F48134F1F405C0833479F08434F0
:10061000C9F412C08BB38F708BBB8BB3862B8BBB93
:1006200088B38F7088BB88B3862B88BB85B38F70E7
:1006300085BB85B3862B85BB82B38F7082BB82B3AB
:10064000682B62BB089541E00E947700089541E065
:100650000E94FA00089540E00E94FA0008950E9466
:10066000D50108950E947D0108950E9465000E94B1
:100670004D0483E460E00E94230383E461E00E9470
:10068000230383E462E00E94230383E463E00E9487
:10069000230383E464E00E94230383E465E00E9473
:1006A0002303C1E08FEF0E9461048EB18FB190E00F
:1006B000C0978C31910508F0C8C0865D9F4FFC0142
:1006C000EE0FFF1F0590F491E02D099483E460E0A4
:1006D0000E943203813021F484E30E946104B5C09A
:1006E00083E460E00E943203882309F0AEC085E312
:1006F0000E946104AAC083E46C2F0E9432038130FF
:1007000021F486E30E946104A0C083E46C2F0E9460
:100710003203882309F099C087E30E94610495C0E1
:1007200083E462E00E943203813021F488E30E9476
:1007300061048BC083E462E00E943203882309F0E5
:1007400084C089E30E94610480C083E463E00E9466
:100750003203813021F481E40E94610476C083E495
:1007600063E00E943203882309F06FC082E40E9494
:1007700061046BC083E460E00E94270366C083E4E9
:1007800060E00E942B0361C083E46C2F0E9427036A
:100790005CC083E46C2F0E942B0357C083E462E0AB
:1007A0000E94270352C083E462E00E942B034DC0E5
:1007B00083E463E00E94270348C083E463E00E946F
:1007C0002B0343C083E464E00E943203813021F4B0
:1007D00084E40E94610439C083E464E00E9432032F
:1007E000882399F585E40E9461042FC083E464E0C6
:1007F0000E9427032AC083E464E00E942B0325C0E3
:1008000083E465E00E943203813021F487E40E9492
:1008100061041BC083E465E00E9432038823A9F4CD
:100820008AE40E94610411C0C09364000EC010925B
:1008300064000BC081EE0E9461048093630005C0D8
:1008400082EE0E946104809362008EB18FB190911C
:100850006200905180916300880F282F220F220F91
:10086000820F890F809365001DCF82E464E041E030
:100870000E94770082E465E041E00E94770082E414
:1008800067E041E00E9477006C9A689A6E9A82E471
:1008900064E041E00E94FA0008956E9A82E466E006
:1008A00041E00E9477000895CF93C82F82E464E06E
:1008B00040E00E94FA00CFB9779BFECF8FB1CF9175
:1008C00008958FB98EB18FB190916200905180914F
:1008D0006300880F282F220F220F820F890F809329
:1008E00065000E946B00BC0180E090E00E94E6047D
:1008F00020E030E040E85EE30E944C050E94B50431
:10090000DC01CB0190936100809360002091650031
:1009100030E0281739074CF480916400813049F4A5
:1009200083E465E00E94270304C083E465E00E943D
:100930002B03779BD6CF8FB10895CF93DF93EC0134
:100940008881882379F021960E9454048FEF92E5E4
:10095000A7E081509040A040E1F700C000008991DD
:10096000882391F7DF91CF91089504D06894B11155
:100970008DC0089570D088F09F5790F0B92F9927B7
:10098000B751A0F0D1F0660F771F881F991F1AF09A
:10099000BA95C9F712C0B13081F077D0B1E00895AF
:1009A00074C0672F782F8827B85F39F0B93FCCF330
:1009B000869577956795B395D9F73EF49095809590
:1009C000709561957F4F8F4F9F4F0895E89409C0B0
:1009D00097FB3EF490958095709561957F4F8F4F72
:1009E0009F4F9923A9F0F92F96E9BB279395F69588
:1009F000879577956795B795F111F8CFFAF4BB0F06
:100A000011F460FF1BC06F5F7F4F8F4F9F4F16C069
:100A1000882311F096E911C0772321F09EE8872FF3
:100A2000762F05C0662371F096E8862F70E060E0AF
:100A30002AF09A95660F771F881FDAF7880F969528
:100A4000879597F9089557FD9058440F551F59F011
:100A50005F3F71F04795880F97FB991F61F09F3FAB
:100A600079F087950895121613061406551FF2CFD4
:100A70004695F1DF08C0161617061806991FF1CF24
:100A800086957105610508940895E894BB2766274B
:100A90007727CB0197F908950BD078C069D028F05B
:100AA0006ED018F0952309F05AC05FC01124EECF24
:100AB000CADFA0F3959FD1F3950F50E0551F629FB9
:100AC000F001729FBB27F00DB11D639FAA27F00DA7
:100AD000B11DAA1F649F6627B00DA11D661F829FCE
:100AE0002227B00DA11D621F739FB00DA11D621FB3
:100AF000839FA00D611D221F749F3327A00D611DD0
:100B0000231F849F600D211D822F762F6A2F1124B1
:100B10009F5750408AF0E1F088234AF0EE0FFF1F04
:100B2000BB1F661F771F881F91505040A9F79E3F3B
:100B3000510570F014C0AACF5F3FECF3983EDCF390
:100B4000869577956795B795F795E7959F5FC1F778
:100B5000FE2B880F911D9695879597F9089597F923
:100B60009F6780E870E060E008959FEF80EC089553
:100B700000240A941616170618060906089500247C
:100B80000A9412161306140605060895092E0394F6
:100B9000000C11F4882352F0BB0F40F4BF2B11F46A
:100BA00060FF04C06F5F7F4F8F4F9F4F0895F89491
:020BB000FFCF75
:040BB20001003031DD
:00000001FF
