S0190000536D61727420486F6D65204D61737465722E73726563CF
S11300000C942A000C9447000C9447000C9447006D
S11300100C9447000C9447000C9447000C94470040
S11300200C9447000C9447000C94A90C0C944700C2
S11300300C9447000C9447000C9447000C94470020
S11300400C9447000C9447000C9447000C94470010
S11300500C94470011241FBECFE5D8E0DEBFCDBF0E
S113006012E0A0E6B0E0EEE3FBE102C005900D92E1
S1130070A037B107D9F712E0A0E7B2E001C01D92A2
S1130080A437B107E1F70E9499040C949D0D0C94D8
S113009000003E9A3F9A379A329A319A0895369AD6
S11300A0349BFECF349A84B190E045B1342F20E0E4
S11300B0822B932B0895823451F1833420F48134BC
S11300C009F07BC007C0833409F43EC0843409F0CE
S11300D074C057C0413069F42AB381E090E0AC01A8
S11300E002C0440F551F6A95E2F7BA01622B6ABB3E
S11300F008952AB381E090E0AC0102C0440F551F7B
S11301006A95E2F7BA01609562236ABB08954130AB
S113011069F427B381E090E0AC0102C0440F551F9D
S11301206A95E2F7BA01622B67BB089527B381E0B1
S113013090E0AC0102C0440F551F6A95E2F7BA0182
S11301406095622367BB0895413069F424B381E06C
S113015090E0AC0102C0440F551F6A95E2F7BA0162
S1130160622B64BB089524B381E090E0AC0102C02B
S1130170440F551F6A95E2F7BA016095622364BB88
S11301800895413069F421B381E090E0AC0102C0EC
S1130190440F551F6A95E2F7BA01622B61BB0895BB
S11301A021B381E090E0AC0102C0440F551F6A9571
S11301B0E2F7BA016095622361BB0895823451F17C
S11301C0833420F4813409F07BC007C0833409F4FC
S11301D03EC0843409F074C057C0413069F42BB375
S11301E081E090E0AC0102C0440F551F6A95E2F72C
S11301F0BA01622B6BBB08952BB381E090E0AC0194
S113020002C0440F551F6A95E2F7BA016095622354
S11302106BBB0895413069F428B381E090E0AC01F0
S113022002C0440F551F6A95E2F7BA01622B68BBFE
S1130230089528B381E090E0AC0102C0440F551F3B
S11302406A95E2F7BA016095622368BB089541306C
S113025069F425B381E090E0AC0102C0440F551F5E
S11302606A95E2F7BA01622B65BB089525B381E074
S113027090E0AC0102C0440F551F6A95E2F7BA0141
S11302806095622365BB0895413069F422B381E02F
S113029090E0AC0102C0440F551F6A95E2F7BA0121
S11302A0622B62BB089522B381E090E0AC0102C0EE
S11302B0440F551F6A95E2F7BA016095622362BB49
S11302C008958234F1F0833420F4813409F04FC06E
S11302D006C0833441F1843409F049C036C029B3DF
S11302E081E090E0062E02C0880F991F0A94E2F77D
S11302F030E08223932302C0959587956A95E2F7AF
S1130300089526B381E090E0062E02C0880F991F5D
S11303100A94E2F730E08223932302C095958795EF
S11303206A95E2F7089523B381E090E0062E02C0B7
S1130330880F991F0A94E2F730E08223932302C0C6
S1130340959587956A95E2F7089520B381E090E04A
S1130350062E02C0880F991F0A94E2F730E0822328
S1130360932302C0959587956A95E2F7089580E0F6
S113037008958234B9F0833418F48134C9F505C082
S11303808334E9F08434A1F527C02BB381E090E0F5
S1130390AC0102C0440F551F6A95E2F7BA01622707
S11303A06BBB089528B381E090E0AC0102C0440F18
S11303B0551F6A95E2F7BA01622768BB089525B311
S11303C081E090E0AC0102C0440F551F6A95E2F74A
S11303D0BA01622765BB089522B381E090E0AC01C5
S11303E002C0440F551F6A95E2F7BA01622762BB47
S11303F00895823461F0833418F4813469F405C0BB
S1130400833439F0843441F406C06ABB089567BB71
S1130410089564BB089561BB0895823461F0833408
S113042018F4813469F405C0833439F0843441F418
S113043006C06BBB089568BB089565BB089562BB95
S11304400895823461F0833418F4813471F405C062
S1130450833439F0843449F406C089B3089586B3EB
S1130460089583B3089580B3089580E00895823495
S113047051F1833420F4813409F07BC007C0833404
S113048009F43EC0843409F074C057C0413069F4A3
S11304902BB381E090E0AC0102C0440F551F6A9574
S11304A0E2F7BA01622B6BBB08952BB381E090E0B5
S11304B0AC0102C0440F551F6A95E2F7BA0160957A
S11304C062236BBB0895413069F428B381E090E066
S11304D0AC0102C0440F551F6A95E2F7BA01622BC2
S11304E068BB089528B381E090E0AC0102C0440FDA
S11304F0551F6A95E2F7BA016095622368BB0895B7
S1130500413069F425B381E090E0AC0102C0440FAE
S1130510551F6A95E2F7BA01622B65BB089525B3AE
S113052081E090E0AC0102C0440F551F6A95E2F7E8
S1130530BA016095622365BB0895413069F422B322
S113054081E090E0AC0102C0440F551F6A95E2F7C8
S1130550BA01622B62BB089522B381E090E0AC0142
S113056002C0440F551F6A95E2F7BA0160956223F1
S113057062BB08956F70823481F0833418F481343F
S1130580F1F405C0833479F08434C9F412C08BB318
S1130590807F8BBB8BB3862B8BBB88B3807F88BB60
S11305A088B3862B88BB85B3807F85BB85B3862BB8
S11305B085BB82B3807F82BB82B3682B62BB089504
S11305C06295607F823481F0833418F48134F1F4CD
S11305D005C0833479F08434C9F412C08BB38F70AE
S11305E08BBB8BB3862B8BBB88B38F7088BB88B3D4
S11305F0862B88BB85B38F7085BB85B3862B85BB63
S113060082B38F7082BB82B3682B62BB08958EBBAA
S11306109FBB6DBBE29AE19AE199FECF08958EBB30
S11306209FBBE09A8DB3089584E460E041E00E94AA
S11306305B0084E461E041E00E945B0084E462E0EA
S113064041E00E945B0084E463E041E00E945B00BF
S113065084E464E040E00E945B0084E465E040E000
S11306600E945B0084E466E040E00E945B0084E456
S113067067E040E00E945B0084E464E041E00E94A3
S1130680370284E465E041E00E94370284E466E0D6
S113069041E00E94370284E467E041E00E943702AF
S11306A008950F931F93CF93DF93CDB7DEB7609771
S11306B00FB6F894DEBF0FBECDBFDE011196E0E6A3
S11306C0F0E080E101900D928150E1F700E084E4D4
S11306D060E041E00E94DE0084E461E041E00E94C9
S11306E0DE0084E462E041E00E94DE0084E463E032
S11306F041E00E94DE0084E4602F40E00E94DE00BE
S113070010E0612F6C5F84E40E946101882361F42E
S1130710E02FF0E0EE0FFF1FEE0FFF1FE10FF11DC2
S1130720EC0FFD1F818104C01F5F143051F70BC013
S113073060960FB6F894DEBF0FBECDBFDF91CF91A8
S11307401F910F9108950F5F043009F68FEFF0CFDA
S113075082E460E041E00E94DE008FE99FE00197BF
S1130760F1F700C0000082E460E040E00E94DE0097
S11307708FE99FE00197F1F700C000000895682F0A
S113078081E40E940D0282E461E040E00E94DE0008
S11307900E94A8038FEC97E00197F1F700C00000D6
S11307A008958FEF92E5A7E081509040A040E1F7D3
S11307B000C0000081E460E041E00E945B0081E44D
S11307C061E041E00E945B0081E462E041E00E945C
S11307D05B0081E463E041E00E945B0081E464E04B
S11307E041E00E945B0081E465E041E00E945B001F
S11307F081E466E041E00E945B0081E467E041E05F
S11308000E945B0082E460E041E00E945B0082E4BD
S113081062E041E00E945B0082E461E041E00E940A
S11308205B0082E462E040E00E94DE0088E30E9414
S1130830BF03AFECB7E01197F1F700C000008CE004
S11308400E94BF038FEC97E00197F1F700C000000E
S113085081E00E94BF03AFE1BEE41197F1F700C04D
S1130860000086E00E94BF038FEC97E00197F1F748
S113087000C000000895682F81E40E940D0282E404
S113088061E041E00E94DE000E94A8038FEC97E043
S11308900197F1F700C000000895CF93DF93EC01B6
S11308A08881882331F021960E943B048991882312
S11308B0D9F7DF91CF91089581E00E94BF038FE1C2
S11308C09EE40197F1F700C000000895282F2150FD
S11308D0223070F4613170F4662371F0813019F4C0
S11308E0962F91580AC0823041F4962F915405C036
S11308F090E803C090E801C090E8892F0E94BF03EC
S11309008FEC97E00197F1F700C00000089541E0F3
S11309100E945B00089541E00E94DE00089540E0DB
S11309200E94DE0008950E94B90108950E946101A9
S1130930089583E490E060E070E00E94870483E41B
S113094090E061E070E00E94870483E490E062E05C
S113095070E00E9487040E94D1030E9414030E9445
S113096049000E94FD0C0E94540D80E190E00E9419
S11309700F03882349F583E490E062E070E00E946D
S11309808B0480E790E00E944D0482E061E00E94C5
S113099066048EE790E00E944D048AEA96EEA6E98A
S11309A0B1E081509040A040B040D9F700000E94CF
S11309B05C0480E190E06FEF0E94070383E490E021
S11309C062E070E00E948F048EE890E00E944D0483
S11309D082E061E00E9466048FE990E00E944D0489
S11309E08FEF96E1A1E181509040A040E1F700C073
S11309F000001092700281E090E090937302809363
S1130A0072020E945C048FEF92E5A7E0815090404F
S1130A10A040E1F700C000000F2EF5EB2F2EF0E010
S1130A203F2EF02D0F2EFBED8F2EF0E09F2EF02D9C
S1130A3001E011E00F2EFFE0EF2EF1E0FF2EF02D8C
S1130A400F2EFEE3CF2EF2E0DF2EF02D0F2EF9E471
S1130A50AF2EF2E0BF2EF02D0F2EF0E76F2EF0E058
S1130A607F2EF02D0F2EFEE74F2EF0E05F2EF02D9F
S1130A7080E290E00E940F038F3F09F0E9C08BEA07
S1130A8090E00E944D0482E061E00E946604C1018E
S1130A900E944D048FEF96E1A1E181509040A04067
S1130AA0E1F700C000000E945C0480EC90E00E942A
S1130AB04D0482E061E00E9466048FEC90E00E94A5
S1130AC04D0410927102C0917102D0E00E94510352
S1130AD0FE01EB59FD4F80838091710290E08B59A8
S1130AE09D4FDC018C918F3F71F38FEF95EDA6E064
S1130AF081509040A040E1F700C000008091710255
S1130B0090E08B599D4FDC018C910E943B048FEF48
S1130B1093ECA9E081509040A040E1F700C00000B0
S1130B2060917102645F82E00E9466048AE20E941E
S1130B303B0480917102282F30E02B593D4F90E007
S1130B40D9016C910E940703809171028F5F809399
S1130B507102843008F4B7CF0E945C04C4010E947F
S1130B604D048FEF91EEA4E081509040A040E1F756
S1130B7000C000000E945C0486EE90E00E944D04D8
S1130B8082E061E00E94660485EF90E00E944D04DB
S1130B9010927102C0917102D0E00E945103FE01D3
S1130BA0EB59FD4F80838091710290E08B599D4FEA
S1130BB0DC018C918F3F71F38FEF95EDA6E08150AE
S1130BC09040A040E1F700C000008091710290E0E5
S1130BD08B599D4FDC018C910E943B048FEF93EC69
S1130BE0A9E081509040A040E1F700C0000060916E
S1130BF07102645F82E00E9466048AE20E943B0400
S1130C008091710290E0FC01EB59FD4F04966081E4
S1130C100E940703809171028F5F80937102843078
S1130C2008F4B8CF80E290E060E00E9407030E94DD
S1130C305C04C4010E944D048FEF91EEA4E0815046
S1130C409040A040E1F700C000000E945C0410CF77
S1130C50C8010E944D0482E061E00E946604C7015D
S1130C600E944D040E94510380936E028F3FD1F382
S1130C708FE79AE1A6E081509040A040E1F700C0E0
S1130C8000000E945C0480916E02803309F0CDC3A1
S1130C908FE191E00E944D0482E061E00E946604CD
S1130CA08AE291E00E944D0410927102C091710297
S1130CB0D0E00E945103FE01EB59FD4F80838091E7
S1130CC0710290E08B599D4FDC018C918F3F71F341
S1130CD08FEF95EDA6E081509040A040E1F700C071
S1130CE000008091710290E08B599D4FDC018C9142
S1130CF00E943B048FEF90E7A2E081509040A04017
S1130D00E1F700C0000060917102645F82E00E941C
S1130D1066048AE20E943B048091710290E00E9482
S1130D200F0390917102292F30E02B593D4FD901C7
S1130D302C91821711F010926B029F5F90937102B5
S1130D40943008F4B3CF80916B02813009F09CC5D4
S1130D5083E490E060E070E00E948B0412BE81E0C6
S1130D60809370020E945C0486E391E00E944D042B
S1130D7082E061E00E9466048FE191E00E944D04EC
S1130D808FEF94E3ACE081509040A040E1F700C0C5
S1130D9000000E945C0481E491E00E944D0482E022
S1130DA061E00E94660481E591E00E944D040F2EEB
S1130DB0F1E44F2EF1E05F2EF02D0F2EFBED2F2EE0
S1130DC0F1E03F2EF02D0E94510380936E0220919A
S1130DD072023091730297E12037390708F009CE87
S1130DE08F3F89F38FEF95EDA6E081509040A040AE
S1130DF0E1F700C000000E945C0480916E0282331F
S1130E0009F45BC0833320F4813309F0F1C207C0D5
S1130E10833309F4A0C0843309F0EAC2EAC080E352
S1130E200E941C0DAFECB7E01197F1F700C0000071
S1130E308FEF0E941C0DC82F80E691E00E944D04A4
S1130E40C43329F489E691E00E944D0406C0C533F9
S1130E5021F48CE691E00E944D0482E061E00E945E
S1130E60660480E791E00E944D040E945103809340
S1130E706E022091720230917302B7E120373B0772
S1130E8008F0B7CD8F3F89F38FEF95EDA6E0815041
S1130E909040A040E1F700C0000080916E028133D1
S1130EA021F0823309F0B3C204C084E30E941C0D14
S1130EB0AEC285E30E941C0DAAC281E30E941C0DF0
S1130EC0AFECB7E01197F1F700C000008FEF0E947C
S1130ED01C0DC82F81E891E00E944D04C63329F40B
S1130EE089E691E00E944D0406C0C73321F48CE6E4
S1130EF091E00E944D0482E061E00E94660480E774
S1130F0091E00E944D040E94510380936E0220914F
S1130F10720230917302B7E120373B0708F069CDC4
S1130F208F3F89F38FEF95EDA6E081509040A0406C
S1130F30E1F700C0000080916E02813321F082331A
S1130F4009F065C204C086E30E941C0D60C287E3F9
S1130F500E941C0D5CC282E30E941C0DAFECB7E042
S1130F601197F1F700C000008FEF0E941C0DC82FED
S1130F708AE891E00E944D04C83329F489E691E09F
S1130F800E944D0406C0C93321F48CE691E00E940E
S1130F904D0482E061E00E94660480E791E00E94D3
S1130FA04D040E94510380936E022091720230918D
S1130FB07302B7E120373B0708F01BCD8F3F89F35D
S1130FC08FEF95EDA6E081509040A040E1F700C07E
S1130FD0000080916E02813321F0823309F017C240
S1130FE004C088E30E941C0D12C289E30E941C0DF8
S1130FF00EC20F2EF3E9AF2EF1E0BF2EF02D0F2E0F
S1131000F8EE8F2EF1E09F2EF02D0F2EF9EF6F2EBC
S1131010F1E07F2EF02D0E945C04C5010E944D0476
S113102081E06CE00E9466048BE991E00E944D042B
S113103082E061E00E94660480EA91E00E944D042F
S11310400E94510380936E022091720230917302C8
S113105097E12037390708F0CCCC8F3F89F38FEF25
S113106095EDA6E081509040A040E1F700C000005B
S113107080916E02823309F458C0833309F4A7C007
S1131080813309F0C4C10E945C0483E30E941C0DF7
S1131090AFECB7E01197F1F700C000008FEF0E94AA
S11310A01C0DC82F81EB91E00E944D04C13429F43A
S11310B089E691E00E944D0406C0C23421F48CE616
S11310C091E00E944D0482E061E00E94660480E7A2
S11310D091E00E944D040E94510380936E0220917E
S11310E0720230917302B7E120373B0708F081CCDC
S11310F08F3F89F38FEF95EDA6E081509040A0409B
S1131100E1F700C0000080916E02813331F0823338
S113111041F0803309F07BC17ECF81E40E941C0D35
S113112076C182E40E941C0D72C10E945C0483E4B7
S11311300E941C0DAFECB7E01197F1F700C000005E
S11311408FEF0E941C0DC82F8AEB91E00E944D0482
S1131150C43429F489E691E00E944D0406C0C534E4
S113116021F48CE691E00E944D0482E061E00E944B
S1131170660480E791E00E944D040E94510380932D
S11311806E022091720230917302B7E120373B075F
S113119008F02FCC8F3F89F38FEF95EDA6E08150B7
S11311A09040A040E1F700C0000080916E028133BE
S11311B031F0823341F0803309F029C12CCF84E42B
S11311C00E941C0D24C185E40E941C0D20C106E070
S11311D012E00F2EFCE6EF2EF1E0FF2EF02D0F2E85
S11311E0F9E6CF2EF1E0DF2EF02D0E945C0480ECB6
S11311F091E00E944D0482E061E00E9466048BEC61
S113120091E00E944D0482E06CE00E94660485ED4A
S113121091E00E944D040E94510380936E0220913C
S113122072023091730297E12037390708F0E1CB5D
S11312308F3F89F38FEF95EDA6E081509040A04059
S1131240E1F700C000000E945C0480916E028133CB
S113125039F0823309F481C0803309F0D8C0DBCE81
S1131260C1010E944D0480E20E943B048FED0E9464
S11312703B0483E40E943B0481E06BE00E9466042B
S1131280AFECB7E01197F1F700C000000E945103E2
S113129080936D022091720230917302B7E120377E
S11312A03B0708F0A6CB8F3F89F38FEF95EDA6E0BF
S11312B081509040A040E1F700C0000080916D0291
S11312C00E943B0488E40E941C0DAFECB7E0119728
S11312D0F1F700C0000080916D020E941C0DEFEC3C
S11312E0F7E03197F1F700C000000E9451038093AA
S11312F06C022091720230917302F7E120373F07AC
S113130008F077CB8F3F89F38FE39CEDA6E0815003
S11313109040A040E1F700C0000080916C020E9460
S11313203B048BE40E941C0DAFECB7E01197F1F77E
S113133000C0000080916C020E941C0D0E945C049D
S11313408FEF96E1A1E181509040A040E1F700C009
S11313500000C4010E944D0448CF86E40E941C0D85
S1131360AFECB7E01197F1F700C000008FEF0E94D7
S11313701C0DC82FC3010E944D04C73421F4C601BB
S11313800E944D0405C0CA3419F4C7010E944D04DB
S113139082E061E00E946604C8010E944D040E943C
S11313A0510380936E022091720230917302B7E16F
S11313B020373B0708F01DCB8F3F89F38FEF95ED66
S11313C0A6E081509040A040E1F700C00000809169
S11313D06E02813329F0823339F08033C1F405CFB2
S11313E087E40E941C0D13C08AE40E941C0D0FC0E8
S11313F087E192E00E944D048FEF99E6A8E18150C5
S11314009040A040E1F700C000000E945C040E94EC
S11314105C04C2010E944D0482E061E00E94660403
S113142081E591E00E944D04CECC813309F02CC2B9
S113143083E292E00E944D0482E061E00E9466042F
S11314408AE291E00E944D0410927102C0917102EF
S1131450D0E00E945103FE01EB59FD4F808380913F
S1131460710290E08B599D4FDC018C918F3F71F399
S11314708FEF95EDA6E081509040A040E1F700C0C9
S113148000008091710290E08B599D4FDC018C919A
S11314900E943B048FEF90E7A2E081509040A0406F
S11314A0E1F700C0000060917102645F82E00E9475
S11314B066048AE20E943B048091710290E00496E3
S11314C00E940F0390917102292F30E02B593D4F58
S11314D0D9012C91821711F010926A029F5F9093A8
S11314E07102943008F4B2CF80916A02813009F01D
S11314F0CBC112BE83E490E061E070E00E948B04F3
S113150081E0809370020E945C0486E391E00E9473
S11315104D0482E061E00E94660483E292E00E944E
S11315204D048FEF92E5A7E081509040A040E1F791
S113153000C000000E945C0481E491E00E944D041C
S113154082E061E00E9466048EE292E00E944D0413
S11315500F2EF1E4AF2EF1E0BF2EF02D0F2EFEE2A0
S11315608F2EF2E09F2EF02D0F2EF1E86F2EF1E07A
S11315707F2EF02D00E711E00F2EFCE6EF2EF1E0B8
S1131580FF2EF02D0F2EF9E6CF2EF1E0DF2EF02DF9
S11315900F2EF7E14F2EF2E05F2EF02D0F2EFAE81A
S11315A02F2EF1E03F2EF02D0E94510380936E0206
S11315B0209172023091730297E12037390708F0C5
S11315C018CA8F3F89F38FEF95EDA6E081509040C4
S11315D0A040E1F700C000000E945C0480916E020C
S11315E0823309F458C0833320F4813309F031C1C4
S11315F007C0833309F499C0843309F02AC1DFC0DA
S113160080E30E941C0DAFECB7E01197F1F700C026
S113161000008FEF0E941C0DC82F80E691E00E940D
S11316204D04C43321F4C6010E944D0405C0C533E2
S113163019F4C7010E944D0482E061E00E9466042F
S1131640C8010E944D040E94510380936E022091B0
S1131650720230917302B7E120373B0708F0C9C921
S11316608F3F89F38FEF95EDA6E081509040A04025
S1131670E1F700C0000080916E02813321F08233D3
S113168009F0F5C004C084E30E941C0DF0C085E39A
S11316900E941C0DECC081E30E941C0DAFECB7E06E
S11316A01197F1F700C000008FEF0E941C0DC82FA6
S11316B0C3010E944D04C63321F4C6010E944D04A7
S11316C005C0C73319F4C7010E944D0482E061E0EC
S11316D00E946604C8010E944D040E945103809335
S11316E06E022091720230917302B7E120373B07FA
S11316F008F07FC98F3F89F38FEF95EDA6E0815005
S11317009040A040E1F700C0000080916E02813358
S113171021F0823309F0ABC004C086E30E941C0DA3
S1131720A6C087E30E941C0DA2C082E30E941C0D88
S1131730AFECB7E01197F1F700C000008FEF0E9403
S11317401C0DC82FC1010E944D04C83321F4C601E9
S11317500E944D0405C0C93319F4C7010E944D0409
S113176082E061E00E946604C8010E944D040E9468
S1131770510380936E022091720230917302B7E19B
S113178020373B0708F035C98F3F89F38FEF95ED7C
S1131790A6E081509040A040E1F700C00000809195
S11317A06E02813321F0823309F061C004C088E302
S11317B00E941C0D5CC089E30E941C0D58C083E389
S11317C00E941C0DAFECB7E01197F1F700C00000C8
S11317D08FEF0E941C0DC82F81EB91E00E944D04F5
S11317E0C13421F4C6010E944D0405C0C23419F469
S11317F0C7010E944D0482E061E00E946604C801B2
S11318000E944D040E94510380936E022091720243
S113181030917302B7E120373B0708F0EAC88F3FE5
S113182089F38FEF95EDA6E081509040A040E1F759
S113183000C0000080916E02813319F08233B9F444
S113184004C081E40E941C0D12C082E40E941C0D9D
S11318500EC0C2010E944D048FEF99E6A8E18150A9
S11318609040A040E1F700C000000E945C040E9488
S11318705C04C5010E944D0482E061E00E9466049C
S1131880C4010E944D0490CE81E090916A029111AE
S113189080E0882341F481E090916B02911180E013
S11318A0882309F4E5C88091690281508093690214
S11318B00E945C04C6010E944D0482E061E00E9423
S11318C06604C5010E944D0480916902805D0E94F6
S11318D03B048FEF94E3ACE081509040A040E1F7EB
S11318E000C000000E945C0481E080936B0280933E
S11318F06A0280916902882309F0BAC880E190E005
S113190060E00E94070383E490E062E070E00E94DC
S11319108B04C3010E944D0482E061E00E946604CE
S1131920C2010E944D048AEA96EEA6E9B1E0815014
S11319309040A040B040D9F700000E945C0483E0CE
S11319408093690283E490E062E070E00E948F0477
S11319508FC81F920F920FB60F9211242F933F93AB
S11319604F935F936F937F938F939F93AF93BF93A3
S1131970EF93FF9380917002813071F58091720230
S113198090917302019690937302809372028091F6
S113199072029091730227E180379207E8F00E9467
S11319A05C0483E490E060E070E00E948F0483E4D0
S11319B090E061E070E00E948F0485E592E00E946F
S11319C04D04109270028FEF96E1A1E18150904096
S11319D0A040E1F700C00000FF91EF91BF91AF91EB
S11319E09F918F917F916F915F914F913F912F9133
S11319F00F900FBE0F901F90189582E464E041E0B1
S1131A000E945B0082E465E041E00E945B0082E4A6
S1131A1067E041E00E945B006C9A689A6E9A82E4E7
S1131A2064E041E00E94DE0008956E9A82E466E07C
S1131A3041E00E945B000895CF93C82F82E464E0E4
S1131A4040E00E94DE00CFB9779BFECF8FB1CF91EB
S1131A5008958FB9779BFECF8FB10895CF93DF930D
S1131A60EC018881882379F021960E941C0D8FEF68
S1131A7092E5A7E081509040A040E1F700C000004B
S1131A808991882391F7DF91CF91089582B5886079
S1131A9082BD85B5816085BD85B5846085BD78943A
S1131AA089B7806489BF089583B7886083BF8FE452
S1131AB08CBF83B7816083BF83B7846083BF78940E
S1131AC089B7826089BF0895BB9A83B7886083BF52
S1131AD080E48CBF83B7816083BF83B7846083BF96
S1131AE083B7806183BF0895BB9A83B7806483BF43
S1131AF083B7886083BF80E48CBF83B7816083BF72
S1131B0083B7846083BF83B7806183BF83B78062F8
S1131B1083BF0895BB9A83B7806483BF80E48CBF7E
S1131B2083B7816083BF83B7846083BF83B78061D9
S1111B3083BF83B7806283BF0895F894FFCF0C
S1131B3E3738392F3435362A3132332D41303D2B57
S1131B4E6C6F67696E20626C6F636B65640077619E
S1131B5E6974203230207365636F6E647300576549
S1131B6E6C636F6D6520746F20536D6172740068C1
S1131B7E6F6D652073797374656D004C6F67696E54
S1131B8E20666F720066697273742074696D6500E5
S1131B9E5365742041646D696E20706173730041E6
S1131BAE646D696E20706173733A005061737320B3
S1131BBE53617665640053657420477565737420AC
S1131BCE7061737300477565737420706173733A33
S1131BDE0053656C656374206D6F6465203A003044
S1131BEE3A41646D696E20313A47756573740041EC
S1131BFE646D696E206D6F646500456E7465722048
S1131C0E706173733A0052696768742070617373FC
S1131C1E00313A526F6F6D3120323A526F6F6D321E
S1131C2E00333A526F6F6D3320343A4D6F72650044
S1131C3E526F6F6D3120533A004F4E004F4646009F
S1131C4E312D6F6E20322D6F666620302D52455425
S1131C5E00526F6F6D3220533A00526F6F6D332006
S1131C6E533A00313A526F6F6D3400323A54560083
S1131C7E333A41697220436F6E642E343A5245549E
S1131C8E00526F6F6D3420533A00545620533A006D
S1131C9E313A5365742054656D7000323A436F6E59
S1131CAE74726F6C00303A5245540053657420744C
S1131CBE656D702E3A2D2D0054656D7065726174CC
S1131CCE7572652053656E740041697220436F6EA0
S1131CDE642E20533A00312D4F6E20322D4F6666FE
S1131CEE20302D5245540077726F6E6720696E70E6
S1131CFE7574004775657374206D6F646500333AAF
S1131D0E526F6F6D3320343A526F6F6D34005772C9
S1131D1E6F6E672070617373005472696573206C03
S1131D2E6566743A0053657373696F6E2054696DFA
S1131D3E656F757400FFFFFFFF030101FFFFFF00D6
S9030000FC
